:020000041000EA
:1000000000B5324B212058609868022188439860DF
:10001000D860186158612E4B002199600221596106
:100020000121F02299502B49196001219960352056
:1000300000F044F80222904214D00621196600F024
:1000400034F8196E01211966002018661A6600F04E
:100050002CF8196E196E196E052000F02FF8012189
:100060000842F9D1002199601B49196000215960AB
:100070001A491B48016001219960EB211966A021F2
:10008000196600F012F800219960164914480160C1
:100090000121996001BC002800D000471248134993
:1000A000086003C880F30888084703B5996A0420EC
:1000B0000142FBD001200142F8D103BD02B5186610
:1000C0001866FFF7F2FF186E186E02BD00000240BE
:1000D000000000180000070000035F00212200005C
:1000E000F4000018222000A00001001008ED00E03C
:1000F00000000000000000000000000074B24E7A12
:1001000000200420F7010010C3010010C5010010F9
:10011000C1010010C1010010C1010010C101001097
:10012000C1010010C1010010C1010010C701001081
:10013000C1010010C1010010C9010010CB01001065
:10014000CD010010CD010010CD010010CD01001037
:10015000CD010010CD010010CD010010CD01001027
:10016000CD010010CD010010CD010010CD01001017
:10017000CD010010CD010010CD010010CD01001007
:10018000CD010010CD010010CD010010CD010010F7
:10019000CD010010CD010010CD010010CD010010E7
:1001A000CD010010CD010010CD010010CD010010D7
:1001B000CD010010CD010010CD010010CD010010C7
:1001C00000BE00BE00BE00BE00BE00BEEFF3058054
:1001D000103800BEF2EB88719C660010BC660010FF
:1001E0003402001090A31AE700201F49086006C8D7
:1001F00081F3088810471D48006800282FD10DA4FE
:100200000ECC002902D000F012F8F9E71849194A7B
:10021000002000E001C19142FCD1174988471749ED
:1002200088471749884700BEFDE701C901C29A42C5
:10023000FBD37047BC660010C0000020D40700202C
:10024000D06D00100000042000000420D06D0010CC
:10025000001004200010042000000000704709482E
:1002600002F016FD0047000008ED00E0000000D09D
:10027000D807002098160020092B00105503001005
:10028000FD2B00105756000006005250ABB36053D0
:100290003C64001006005250861C03025464001097
:1002A000060052505422A29D78640010050052505E
:1002B000DE65F468D06D0010F8B5C0460448054B03
:1002C00010B5834203D0044B002B00D0984710BDDB
:1002D000D4070020D407002000000000064807498A
:1002E000091A8B10C90FC91810B5491003D0044B57
:1002F000002B00D0984710BDD4070020D407002061
:100300000000000010B5074C2378002B09D1FFF73F
:10031000D5FF054B002B02D0044800E000BF0123AD
:10032000237010BDE008002000000000686300108A
:10033000054B10B5002B03D00449054800E000BF71
:10034000FFF7CCFF10BDC04600000000E40800200D
:100350006863001010B500F00DF8FA20012180004C
:1003600002F030FB00F016FC02F022FB00F044FC2F
:10037000FAE7C04600B585B000F022F80A4803ABA2
:1003800002AA01A900F078FC002803D10649074819
:1003900002F038FC039A0299019800F031FC00F059
:1003A00007F805B000BDC04688070200686300106A
:1003B000024B1B6883F310887047C0469C130020D3
:1003C000EFF3108272B6014B1A6070479C13002045
:1003D00030B5C4B283B0009001910120042C0ED836
:1003E0006B465D785A1C9B7801301B022B43957835
:1003F0002D042B43D5782D061D43072D01D803B0BE
:1004000030BD0A3000F084FE0B2000F081FE0A208F
:1004100000F07EFE092000F07BFE072000F078FE51
:10042000062000F075FE042000F072FED02380212B
:10043000802280201B064901C000120159625A62C5
:1004400058628020800058628138FF3858624038F6
:100450005862303858629961E10738D49A61A3072D
:1004600038D5D02380221B06D2005A61630738D5C5
:10047000D02380221B0692005A61D02380221B06C3
:100480005A61403A5A61303A9A61052000F040FEC4
:100490000421052000F0CCFD0023154C154AA36271
:1004A00023636363A263FF221201E2622900A36255
:1004B000114802F01BFC114BA0631A6883B25B0861
:1004C0001B0453401B0C0E4A1B04136097E75A6130
:1004D000A307C6D4D02380221B06D2009A616307EB
:1004E000C6D4D02380221B0692009A61C5E7C0467D
:1004F00000000540FFFF000060F5070034000540E4
:1005000034100540D02310221B069A61034B0020B3
:100510001A6801239343024A13607047280005407C
:1005200028100540D02310221B065A61034B0020DF
:100530001A6801239343024A13607047280005405C
:1005400028100540034B00201A6801231340024A7B
:1005500013607047280005402810054070B5132827
:1005600005D003000222123B93431CD070BD082922
:10057000FCD10122534B1A70FFF722FF0022524B8D
:100580001A70FFF715FF514B5A68002AEED05049F8
:10059000097800295CD00129E8D11A6800210020DF
:1005A00000F0C8F9E2E70829E0D1122836D0142873
:1005B0002BD1D0231B065B685B0317D4414C2378F7
:1005C000002B55D001210022424B22701970424964
:1005D0000A703E4A1268002AC8D0002119703C4BAC
:1005E0001B78002B34D0012BD8D0BFE73B4D2B78A4
:1005F000002B08D0334C2378002B52D0002301224B
:100600002370344B1A7001232B70304B1A68002A68
:10061000ACD0304B19780029A8D0DEE7D0231B06D8
:100620005B68DB0218D52C4D2B78002BEBD0254CCA
:100630002378002BE2D1FFF7C3FE234BB3211A78B6
:10064000002A01D0013AD1B21970FFF7B1FED5E707
:1006500000210020904789E71A4C2378002B14D002
:10066000012100221B4B227019701C490A70B0E74F
:10067000FFF7A6FE144BB3211A78002A01D0013AE5
:10068000D1B21970FFF794FE9CE7FFF799FE0E4B6D
:100690001A78B32A11D00132D2B21A70FFF788FE4D
:1006A000DEE7FFF78DFE084B1A78B32A07D0013238
:1006B000D2B21A70FFF77CFEA0E70022EDE700221D
:1006C000F7E7C046D2130020CB130020480E0020CD
:1006D000E0030020CC130020E2030020E10300200F
:1006E00070B5D4B284B00190029101AE00F014F95B
:1006F0000220012C2CD8103000F00AFD142000F04C
:1007000007FD132000F004FDD02380221B06D20237
:100710009A62802252039A6280220E4D12039A62DC
:1007200008212B000122122000F09AFC2B0001224C
:100730000821142000F094FC2B0001220821132032
:1007400000F08EFC0020044B06CE06C3034B1C7049
:1007500004B070BD5D050010480E0020E0030020CD
:10076000024B1B78037000207047C046CB1300205B
:10077000F0B5050083B0002828D0002926D00678DF
:10078000002E25D000260024134F3B191B7801347E
:100790005E4002F00DF92B78E4B29C42F5D36A4634
:1007A000390A917039025770090E3F0ED1701771D6
:1007B0006A4653716B789E1B731E9E41074B1670E1
:1007C0001B68002B02D006216846984703B0F0BD95
:1007D0000023014FE3E7C0465812002054120020C6
:1007E000F0B5002083B0284C284D294E02F048FF78
:1007F000030425D42378C0B2022B23D00AD8002BBF
:100800002DD0431EDBB2FA2B39D8204B987002232F
:1008100023700EE0032B0CD16A461C4F0221BB78DB
:100820005071137101A81B4A00F084F80023BB70BB
:10083000237002F0BDF8002002F022FF0304D9D596
:1008400003B0F0BD6A78B054531CAA78DBB26B7069
:100850009A42EED100236B7003332370E9E70B4B10
:100860001A78002A06D05A2801D1012222700022CB
:100870001A70DEE7A528DCD101321A70D9E700230F
:10088000024A23709370D4E7CD1300205413002044
:10089000581200207107001000B583B0019002F0DB
:1008A000EBFE00F039F80021044802F037FF002089
:1008B000034B019A1A6003B000BDC046E107001067
:1008C00054120020F8B504000F00002821D04B1E60
:1008D000DBB20120FA2B00D9F8BDA43002F068FE8B
:1008E0005A2002F065FE380002F062FE0025002664
:1008F000207802F05DFE01352378EDB25E400134D0
:1009000002F056F8AF42F3D1300002F051FE002061
:10091000E2E70220E0E7C0460021044B044A002041
:1009200099520232013199547047C046E4030020C5
:10093000EE020000F8B506000C0015000A2929D8BF
:10094000BC231C4F9B00FB5C0220002B00D1F8BD98
:10095000FFF736FD002E01D0002C1DD1AF20800006
:10096000844615497B5C9A00BD50FA1801336244F5
:10097000DBB21470322B00D10023104A7B54BA5CD6
:100980009A4203D1BC2300229B00FA54FFF710FDCA
:100990000020DCE70120DAE7074B2200FB5C310096
:1009A0009800C0183B004000C833C01802F0BCFCDF
:1009B000D4E7C046E4030020EE020000EF0200008E
:1009C000F8B5BC26124C134D134F605DB60014E011
:1009D000AF229200944623186344197883001818B4
:1009E0004000C8302018E3589847605D0130C0B21D
:1009F000322809D060550123A355E35D8342E7D136
:100A0000A35D002BE4D0F8BD002300206355F2E77E
:100A1000E4030020EF020000EE02000010B582B0F7
:100A20006B4603220021581D02F078FC032301AC21
:100A300004212000024A2370FFF77CFF02B010BDA2
:100A4000B10A001010B582B06B4603220021581D78
:100A500002F064FC022301AC04212000024A23704E
:100A6000FFF768FF02B010BDB10A001010B503789F
:100A700082B0002B01D002B010BD01AC0133237055
:100A8000837841781B020B43C178032209040B438E
:100A90000179090619436B46581D02F045FC0421F3
:100AA0002000024AFFF746FFE5E7C046B10A001002
:100AB000F0B583B0002809D0002907D0324C237844
:100AC000012B32D0022B0DD0002B01D003B0F0BD92
:100AD0000378002B51D0032BF8D1FFF733FD01230E
:100AE0002370F3E702789A43F0D1284D2B78002B3E
:100AF000ECD16B46DE1C3000FFF732FEAA7833786B
:100B00009A4202D06B78002BE0D0FFF71BFD002348
:100B100001A803706B7804214370AB785B004380BD
:100B2000FFF7D0FE01232370D0E70378012BCDD14E
:100B30004578002DCAD1154E81783570C2781202E1
:100B40000A435210D2B2B270B32A09D9737001337A
:100B5000237004210E4A01A80195FFF7EBFEB5E7CB
:100B60006B46DF1C38007570FFF7FAFD0223237017
:100B7000B2783B789A4203D8EBD2FFF7D3FCA5E7D3
:100B8000FFF7C0FCA2E7C046D4130020C413002026
:100B9000B10A001010B5154888B0FFF77DFE05AB0F
:100BA0001900134A11CA11C1127800240A7006995B
:100BB000079A0598FFF794FD0423302103AA1370C8
:100BC00009336B4449421970373159709C70DC709D
:100BD00004990398FFF7FCFBFFF79EFE0421054AEA
:100BE00002A80294FFF7A6FE08B010BD6D0A00101F
:100BF0009C630010B10A001010B5FFF7E1FE10BDB4
:100C0000F0B583B005000E00140000F09FFA002834
:100C100001D003B0F0BD154F01223B000121009728
:100C2000053001F079FC33002A00009401211048BE
:100C300001F066FE21002800714302F057F804001D
:100C40000C4B002200930221042001F065FC2300DC
:100C5000002201210094052001F05EFC3B000222ED
:100C600000210097062001F057FCD2E7006CDC025F
:100C700000800240001BB700F0B5DE469B46554B96
:100C800057469A46A0234E4645465B00E0B5994636
:100C9000060083B00091019201235B429C46E1442F
:100CA0004B460F2B00D192E04B4F4C4B072457443F
:100CB0009A455ED821003800614302F017F8864259
:100CC0005BD0631E9846012C53D01D00654338004D
:100CD000290002F00BF8864253D0A31E9846022C3E
:100CE00055D02D1B2900380002F000F8864250D064
:100CF000E31E9846032C52D02D1B2900380001F02A
:100D0000F5FF86424DD0231F9846042C4FD02D1B53
:100D10002900380001F0EAFF86424AD0631F984656
:100D2000052C4CD02D1B2900380001F0DFFF864236
:100D300047D0062C49D03800E91F01F0D7FF062420
:100D40008642B7D10029B5D10123072498464A46E7
:100D5000234B01205343009A1360019B42461C60C1
:100D60005B461A6003B03CBC90469946A246AB462F
:100D7000F0BD1C4B9C46E2448EE70029A1D1A04661
:100D8000E5E70029E3D0A31E9846022CA9D101244F
:100D900090E70029DBD0E31E9846032CACD1022457
:100DA00088E70029D3D0231F9846042CAFD1032411
:100DB00080E70029CBD0631F9846052CB2D10424CC
:100DC00078E70029C3D0062CB5D1052472E70020AE
:100DD000C8E7C04670F72E00B0710B0050F80C0049
:100DE000001BB70020D1FFFFD0231B061B68F0B506
:100DF0009A00454690464146894ADE465258574633
:100E000093465A1E934130224E465B421A40854B10
:100E1000E0B59C46844B08269A4683B06244009213
:100E20003500083DEA081300009908339B005C5820
:100E3000002C23D05B46002B2AD001230F27994694
:100E400039002140274213D04B4652464046AB4022
:100E500012581A420CD1072208002A4092009040F2
:100E60000200EB0871483C339B001A502800D84719
:100E700024090135002C01D0B542E1D30836282ED3
:100E8000CED103B03CBC90469946A246AB46F0BDDD
:100E90000F2319002140234207D047460E3BAB40A9
:100EA0006148C059184200D196E02309F11F002B78
:100EB000E4D00F22100018401A420FD001234546FB
:100EC0008B40594A52591A4208D10722CB08114087
:100ED00089008840554A3C339B009850230AB11F33
:100EE000002BCBD00F22100018401A420FD0012344
:100EF00045468B404C4A52591A4208D10722CB082A
:100F0000114089008840494A3C339B009850230B8C
:100F1000711F002BB2D00F22100018401A4239D195
:100F2000230C311F002BA9D00F22100018401A42A9
:100F300041D1230DF11E002BA0D00F22100018402C
:100F40001A4252D1230EB11E002B97D00F2210004F
:100F500018401A4206D0012345468B40324A525966
:100F60001A4253D0240F721E002C00D186E70123B1
:100F7000404693402C4909580191194200D07DE721
:100F80000721D3080A40920094403C33274A9B0033
:100F90009C5073E7012345468B40234A52591A421D
:100FA000BED10722CB081140890088401F4A3C333C
:100FB0009B009850B4E7012345468B401A4A52598A
:100FC0001A42B6D10722CB08114089008840174A3F
:100FD0003C339B009850ACE707231D40AD00A9406F
:100FE000124B3C329200D1505FE7012345468B40C3
:100FF0000D4A52591A42A5D10722CB081140890047
:1010000088400A4A3C339B0098509BE70722CB0854
:10101000114089008840054A3C339B009850A1E765
:10102000A00D0020004101407C1300200040014041
:10103000094A830094464022634410B51C68C000EE
:101040006240C02414408022520113431C60034BB1
:101050009C466044416010BD04C001400040014016
:10106000F8B51E00D0231B061C680700631E9C41B8
:10107000302364421C40224B15009C46C3080720C5
:101080001A003840800081403C321E48644492007F
:101090009B001150E418002D11D080239B011C43AC
:1010A000D02321601B061C68174FA4003B59002B5E
:1010B00011D0002E1ED03E51002D16D1F8BDC023F8
:1010C0009B011C43D02321601B061C680E4FA4000B
:1010D0003B59002BEDD1002EEED000220D200B4904
:1010E0003E5100F039F9002DE8D001210D2000F02B
:1010F000D1F8E3E70D20054900F010FADBE7C04620
:101100000041014000400140A00D0020E90D001009
:101110000123D0228340120693629361094A83001F
:101120009446402263441968C0004A40C0211140DF
:101130008022520113431960034B9C4605236044EF
:101140004360704704C0014000400140024B1868F2
:101150008007C00F7047C04600C00640F8B5EFF3E7
:10116000108772B60E4E3368002BFCD0BFF35F8F32
:10117000CB08C4180725A446C45C01230D40AB402E
:1011800018002040234208D1624623431370BFF366
:101190005F8F306087F31088F8BD100001F032FDDA
:1011A0002C0100D0F8B5CE4647468C4680B5EFF30B
:1011B000108872B6214D2C68002CFCD0BFF35F8FD5
:1011C0009A422CD8D4080721055D06190124114044
:1011D0008C402C421FD007218946063909E0D408EB
:1011E000055D06194C460F001440A7403C002F42F5
:1011F00011D001329342F2D201204042BFF35F8FFF
:1012000000220E4B1A6088F3108800280FDB0CBCFC
:1012100090469946F8BD2C4310003470EEE7BFF3BA
:101220005F8F00232B6088F31088012040426346C3
:10123000002BECD0089801F0E5FCC0462C0100D052
:101240000021044B044ABFF35F8F02C39342FAD1DB
:101250007047C046000100D0800100D0044A1078D9
:10126000431CDBB2172B00D9102313707047C04604
:10127000D806002000B5054B83B00100009318226A
:101280001F230348FFF78EFF03B000BDA8630010C3
:10129000B00D002001238340002904D0034A1360CD
:1012A000034A13607047034A1360FBE780E200E0E3
:1012B00000E100E080E100E001238340014A136087
:1012C0007047C04600E200E0084B10309B68800089
:1012D000C358002B07D0064A00209B1A2F229A429F
:1012E0004041C0B270470020FCE7C04600ED00E07E
:1012F000DC060020024B10309B688000C05870470D
:1013000000ED00E070B50D00EFF3108672B60F4AE5
:101310001368002BFCD0BFF35F8F0D4B10309B6820
:1013200084001B590B4A934203D09D4201D001F027
:1013300081FC074B9B681D51BFF35F8FBFF35F8F2D
:101340000022024B1A6086F3108870BD240100D081
:1013500000ED00E0CD010010F0B557464E46454681
:10136000DE46E0B5894683B005001700EFF3108A2A
:1013700072B65E4A1368002BFCD0BFF35F8F00206B
:101380005B4B18569B46002800DA6CE05A46440036
:10139000584E2418A400331998469B7910351370C1
:1013A000554BAA009B6801929B589C469B1B2F2B78
:1013B00028D8012261469143CB79BB4208D86AE024
:1013C00053009B189B00F318DD79BD4251D91900D9
:1013D00006228A56002AF3DA0B1D9B46474E4346E7
:1013E0005C46043B1B1B1B05454C5B0D23438B805C
:1013F000887141468A714A46424B8E800B60CF719C
:101400008A601BE0404B9C4542D142463F4B023430
:1014100013803F4B3619043B9E1B3605384B760D27
:101420001E433C4B56809380FF23D77193714346F4
:101430004A469A60012342461A43944661462E4B1F
:10144000019A9B689950BFF35F8FBFF35F8F0022B3
:10145000264B1A608AF3108803B03CBC904699462C
:10146000A246AB46F0BD01F0E5FB5B4600201856F6
:101470008CE70B1D9B468B8804345B051B155B4476
:1014800036199E1BE0233605760D1B021E43A6E788
:1014900001F0D0FBB9E745460B001F489B1B5B41A1
:1014A0005843000D194B2B80A31C9C46B444654641
:1014B000174B0434043B5B1B1B05114D5B0DAC4605
:1014C0002B43454636196B800B1F9E1B6346A87144
:1014D00048463605760D1E430A4BAE80EF71A86074
:1014E0000B60434613439C46A8E7C046240100D046
:1014F000CE130020DC06002000ED00E001BD00005E
:1015000000E0FFFF01488047CD01001000A1FFFF70
:101510000C07002001BDFFFFAAAA0000F0B5DE46BF
:1015200057464E464546E0B50C0083B0EFF31089B0
:1015300072B6594A1368002BFCD0BFF35F8F574B2C
:101540009A68030010339F00D559554A904695423A
:1015500032D0A54243D0534EAA1B2F2A2CD80122A9
:10156000824092465146504A1268114001915146BC
:101570004E4A1160BFF35F8FEFF305829346002A56
:1015800033D101232A009A4393689C4208D178E022
:101590004B005B189B00F3189968A1422AD01A00EF
:1015A000062151560029F3DA019B002B19D052462F
:1015B0003F4B1A603C4B1A60384B9B68DD51BFF3C0
:1015C0005F8FBFF35F8F0022334B1A6089F310885F
:1015D00003B03CBC90469946A246AB46F0BD150010
:1015E000EAE75246314B1A60E6E79342C9D001F070
:1015F00021FBC6E706215956002922DB4A00501874
:10160000800034188046A0689860E079D871062080
:1016100020569871A0797F2824D8A488F01A6405F0
:10162000241544440019E0240005400D2402204301
:10163000988052181F4B9200B6181A781970B27120
:10164000B2E7594600290FD1FF3191711A499180B3
:1016500018490A789A71194A9B1B5B415A43120D2B
:101660000A70A1E71648E3E7164A1749D21A083A62
:101670005002400D01439980144952080A43DA8010
:1016800092E70621515613000029B7DA5A46002A7C
:10169000EAD14546DCE7C046240100D000ED00E079
:1016A000CD010010DC06002000E100E080E100E058
:1016B00080E200E0CE13002001BDFFFFAAAA0000D7
:1016C00001BD00001607002000F0FFFF00F8FFFF3B
:1016D000F0B5EFF3058101240443EFF3108672B6F1
:1016E000214A1368002BFCD0BFF35F8F1F4B05000E
:1016F0001F4AED1A6D416A43120D1E4D8900AF68F5
:1017000052B27F58A7421CD00621595691421CD094
:1017100012215956914222D01E215956914220D071
:101720002A2159560324914210D0134B19781A706C
:101730008171BFF35F8F00220B4B1A6086F3108814
:10174000F0BDAB680D4C5C50EFE700246100091957
:1017500089005B18FF21997109499980E5E7012407
:10176000F4E70224F2E7C046240100D0DC060020A2
:10177000AAAA000000ED00E0CE130020CD01001069
:1017800001BDFFFF054B064A1360064A1360536014
:101790009360D36013615361936170478080808050
:1017A00000E400E004E400E000B5074B83B0010072
:1017B0000093002205230548FFF7F4FC002801DB15
:1017C0001F23181A03B000BDC4630010D5130020F6
:1017D000024B9C4661448900016070474000003420
:1017E00010B50400FFF73AFD01002000FFF7F0FFFD
:1017F000FF232371BFF35F8F10BDC04610B50400F7
:10180000FFF72CFD01002000FFF7E2FFFF23A3807C
:10181000BFF35F8F10BDC04610B504000120FFF775
:1018200029FD034BC3189B002360BFF35F8F10BDDE
:1018300040000034034B9C46614489000160BFF3C3
:101840005F8F70474000003483680B4810B58446B2
:1018500061446244090112019A18591854684B688E
:1018600001209C4201D802D00020C0B210BD1268F5
:101870000B689A42F9D8F7E7FFFFFF0F0A4B196888
:10188000EFF3108072B60A68002AFCD0BFF35F8FB6
:101890001B68BFF35F8F00221A6080F3108840BF7F
:1018A000002000217047C04690130020F8B557462D
:1018B00045464E46DE46E0B599460CAB19780DAB71
:1018C0001B78050090469A460768002912D1BE7B16
:1018D000002E45D074003B68A419033C1B195A78AC
:1018E0003100BA73002A00D1FA7300229A705A703C
:1018F0001A7003E00E004C006418033C2C4B0022CD
:101900009C46AB6861449C464346090161440B60B8
:101910004B464B600A9B8B600B9BCB603B681B1953
:101920009A705A701A707B7B9B46002B2CD0320029
:101930005946B8687B6898473A68002817D05B46D4
:1019400058465B005B441419033BA070D118D35C6C
:10195000002B00D063705B460E707B73B34514D0D0
:1019600030003CBC90469946A246AB46F8BD5B466B
:101970005B005B44033BD3189E701119125D002A73
:1019800000D05A705B460B707E7342464B46287DF2
:1019900000F03EFB041E06D05346002B03D131005D
:1019A000286800F07BFD0E9B002BD9D01C70D7E778
:1019B000FFFFFF0FF0B5DE4657464E464546002373
:1019C000E0B58BB00893674B8200D45800239B4648
:1019D000099000F0A3FA626806000F00EFF310858B
:1019E00072B61368002BFCD0BFF35F8F23689C4650
:1019F0005B7B9946002B00D169E0A2685A4B904668
:101A00004B441B01984443461A685B681000190058
:101A1000801BB941002900DC63E0099800F0F8FA66
:101A200000230022984600230692079300239A463B
:101A30006368BFF35F8F5A461A6085F31088534678
:101A4000002B08D10028C4D10BB03CBC904699466D
:101A5000A246AB46F0BD089B414618024B461843D0
:101A6000D047626806000F00EFF3108572B6136866
:101A7000002BFCD0BFF35F8F002F50DB33003B43C4
:101A800002D02369002B61D12368DA7B002A07D0BA
:101A900051008A1819688C4649466244033A5170CD
:101AA0009A7B002A01D14A469A734A46DA734B461A
:101AB000E168013BCA5C0132CA545B46236163683A
:101AC000BFF35F8F5A461A6085F3108881E70023C1
:101AD00000229846002306920793002300209A468E
:101AE000A6E7002902D1002800D096E70021604631
:101AF00000F032FC43461A685B680692079343463F
:101B00009B689A464346DB689846E3684B44013B32
:101B10001B7808931B0203432361002088E7236995
:101B2000002BB1D0069A079B921BBB41002B15DB03
:101B30005946049101210391494602914146019180
:101B4000514620000091FFF7B1FEB6E700F0E6F93C
:101B500032003B0012184B41002BE9DA0122034B03
:101B60005242E5E76C130020FFFFFF0FFFFFFF7FEE
:101B700010B5144C6368002B04D00A211248FFF7FB
:101B800027FE10BD2300114A1021206800F0FEFA44
:101B9000032000F0B7F9032000F0A4FA03200C4959
:101BA00000F0F0F9FFF75AFB0A4B9C46032323751C
:101BB000D0231B061B6860446375074B8000606080
:101BC000DC60DAE724070020901300204918001099
:101BD000B5190010400000346C1300200048704715
:101BE00024070020F0B54E464546DE465746E0B590
:101BF00085B0019310AB1B78804603930023002629
:101C00009946009243465A68EFF3108B72B61368F8
:101C1000002BFCD0BFF35F8F43461D68AC7B002CCC
:101C200043D067002B683F19033FDB195A78AA732A
:101C3000002A00D1EA7342469E705E701E70926860
:101C4000494B94460099019AE3181B0163441960BB
:101C50005A600E9A9A600F9ADA602B68DB199E70B0
:101C60005E701E706B7B9A46002B68D022001900B4
:101C7000A8686B6898472A68002853D05346504696
:101C80005B005344D719033BB870D118D35C002BC9
:101C900000D07B7053460C706B73544550D0434654
:101CA000DB681B19013B187800E0002043465B68A5
:101CB000BFF35F8F1E608BF31088002C51D04B4612
:101CC000002B08D10002204305B03CBC9046994649
:101CD000A246AB46F0BD039B002B40D00E9B0020DC
:101CE0000F999847030004000D000B4337D00029DB
:101CF0000ADA009A019B121BAB4100920193002B60
:101D00000ADB039B99467DE700F008F924184D4152
:101D100000940195002DF4DA0123144C5B420093EA
:101D20000194EEE753465B005344033BD3189C7089
:101D3000D119D25D002A00D05A7053460B706C73D3
:101D40004346187D009A019B00F062F98146002805
:101D5000A5D043462100186800F0A0FB9FE70020B3
:101D6000B2E701204042AFE7FFFFFF0FFFFFFF7F19
:101D7000407D7047F0B5EFF30583CE46474680B50A
:101D800005000C0085B0002B12D02C4B0020596AA6
:101D90008C4203D89B6A0130AB4204D305B00CBC23
:101DA00090469946F0BD611A481E8141C8B2F5E7D8
:101DB000234E02930193234B0200009330000B004B
:101DC000FFF710FF031EE0DD20BF7168EFF31087FF
:101DD00072B60A68002AFCD0BFF35F8FDAB294466D
:101DE0003068427B62451DD0FF221A40510089466F
:101DF000016891448846494641440339897800295D
:101E000013D0F1681B0A88464244013A1278DBB2CB
:101E10009A420FD07368BFF35F8F00221A6087F376
:101E20001088B2E7FF221A40EBE732699342F1D102
:101E30003161EFE7614600F031FBEBE70040054020
:101E4000240700207D180010F0B5EFF30582D64678
:101E50004F4646461000C0B51038EFF3108872B6F2
:101E6000214C2368002BFCD0BFF35F8F01231900A6
:101E700081401E4D1F006963AA461D4D29601D4DFE
:101E80002E78AC463500C5402F402B4215D0534626
:101E9000194D5F6A83005D59AF4218D3174A8E43CC
:101EA0009B5862461670BFF35F8F0022226088F352
:101EB0001088002B06D0984704E0BFF35F8F27609F
:101EC00088F310881CBC90469946A246F0BD0C4B86
:101ED00092009C46624413681360BFF35F8F002337
:101EE000236088F31088EDE7280100D0004005400A
:101EF0003C700540D3130020A0130020900C00205C
:101F0000D03F054010B50100024A0348FFF726F90B
:101F100010BDC046E0630010CA130020034B596A8D
:101F20000A00986A596A8A42FAD17047004005400F
:101F300070B504000D00124A536A1900966A536A7C
:101F40008B42FAD13000190024184D41AB4211D810
:101F50000ED02B000A494A6A9A42FCD307D1084A9C
:101F600002E0516A994202D1916AA142F9D370BD4F
:101F7000A642EED9012301246442E5175B42E9E75A
:101F80000040054070B504000D00EFF3108672B6F6
:101F90001A4A1368002BFCD0BFF35F8F002D1BD0B3
:101FA0002000FFF7A7F9164981420AD02000FFF769
:101FB000A9F901212000FFF76DF90123A340114A7F
:101FC0001360114BA400E550BFF35F8F00220B4B51
:101FD0001A6086F3108870BD0B4BA200D550012209
:101FE000A2400A4920000B7893430B700449FFF785
:101FF00095FA00212000FFF74DF9E5E7280100D010
:10200000491E001038600540900C0020D3130020BA
:10201000F0B54F46D6464646C0B507002C4C616A1F
:102020000D00A66A616AA942FAD18B4208D805D090
:1020300001201CBC90469946A246F0BDB242F7D999
:10204000EFF3108972B6234801680029FCD0BFF372
:102050005F8F01252049BD408C4609781C4C0E003D
:102060002E438846F1B28A46614650460870391DB3
:102070001A48890065630A51B9000B50216A002093
:10208000294219D0616A0800A66A616A8142FAD1C0
:102090008B4219D801D1B24216D8C24516D00C4B8A
:1020A0001F201D625D6301230740BB400C4A1E38A0
:1020B0001360634642461A70BFF35F8F0022054BE0
:1020C0001A6089F31088B4E70020F5E70120F3E7F0
:1020D00000400540280100D0D3130020A0130020A9
:1020E00080E200E010B5EFF3108472B60A490B6885
:1020F000002BFCD0BFF35F8F01238340074A0848C1
:10210000136202789A430270BFF35F8F00230B6063
:1021100084F3108810BDC046280100D0004005405F
:10212000D313002070B505000E001400002924D040
:10213000002A24D080686B689847296800280ED050
:1021400063001B197200033B9219CB18033A9E706F
:1021500088188A5C002A14D1047030000EE07300E5
:102160009B196200033B1219CB18033A9C70881824
:102170008A5C002A00D05A700670200070BD0800EA
:10218000FCE75A7004703000F8E7C04630B5836051
:102190000023CCB243730133047342608373C4736E
:1021A0000D000068012C06D9421C0133DBB213700C
:1021B00003329C42F9D1FF2129404B0059180023DA
:1021C00040180338437030BDF8B5CE464746060088
:1021D0000C0080B5002907D04D0003686D18033D41
:1021E0005A195778002F04D120000CBC904699460C
:1021F000F8BD7900C919033988464344597889469E
:1022000000215970517073683A0021008068984726
:102210003368002814D042469A18947059195B5DAF
:10222000002B00D053700F70270049463000FFF795
:10223000CBFF390002003000FFF774FF0400D3E742
:10224000424641465D19AF709A185B5C002B00D086
:102250006B701470E9E7C046F0B557464546DE4658
:102260004E46E0B50D006B0001685B19DF1E0400EF
:10227000C85D83B00192CA19002850D043001B18D2
:10228000033BCB185E78B446002E1AD1019E002E77
:1022900042D0E67B002E04D073009B19CB18033B81
:1022A0005D70A37B002B00D1A573E57300282FD1AF
:1022B0000023537003B03CBC90469946A246AB46FF
:1022C000F0BD72006244033A89184A7890460022B1
:1022D0004A7091465A70010032002000FFF722FF39
:1022E00043468246002B07D05B0021684344033BF2
:1022F000CB185A78002A16D1424651462000FFF7E3
:1023000011FF2168019BCA19002BC2D10028CFD030
:1023100043001B18033BCB1800219970C8E7019BB1
:10232000002BB6D1C4E7500080180338091848784C
:10233000834648464870587041462000FFF7F2FE39
:10234000594680462000FFF73FFF4146020020002B
:10235000FFF7E8FE8046CFE7F0B54E464546DE463D
:102360005746E0B5467B040075000068AD19033D93
:1023700083B00191415D4219002952D04B005B1896
:10238000033BC3185F78BC46002F1CD1019D002D74
:1023900044D0E57B002D04D06B005B19C318033BD0
:1023A0005E70A37B002B00D1A673E673002931D1A8
:1023B000002330005370617303B03CBC90469946D3
:1023C000A246AB46F0BD7A006244033A80184278D8
:1023D00093460022427091465A7020003A00FFF75F
:1023E000A1FE5B468046002B07D05B0021685B4462
:1023F000033BCB185A78002A17D15A464146200091
:10240000FFF790FE019B010020684219002BC0D10C
:102410000029CDD04B005B18033BC31800209870F7
:10242000C6E7019B002BB4D1C2E7500080180338E7
:102430000918487882464846487058705946200026
:10244000FFF770FE53468346002B07D05B002168E0
:102450005344033BCB185A78002A06D159465246BA
:102460002000FFF75FFE8346C7E75000801803385F
:10247000091848464F784870587051462000FFF7B9
:1024800051FE390081462000FFF79EFE49460200BA
:102490002000FFF747FE8246E0E7C04670B5040023
:1024A00000292CD0437B8B422ED005684800401871
:1024B000033828188278002A21D053009B18033B48
:1024C000EA5CEE188A4202D11BE0002A08D05300D1
:1024D0009B18033BEB185A788A42F6D142785A701F
:1024E00000230122837043702000FFF7B5FE617B5B
:1024F00002002000FFF716FE6073012000E00020BC
:1025000070BD43783370EBE701221900FFF7A4FE9A
:1025100060730120F4E7C046F0B54546DE465746F5
:102520004E46E0B583B001920C9A050088469A4267
:1025300000D976E01A0E93461E0230000023594659
:102540000C9A00F011FC384B6C009C466419A400F6
:10255000644463680700834200D260602B1FDBB2D3
:102560009946012B37D9C02380229B0123431201B6
:102570001A602E4BAD0059599A46002907D0586968
:1025800000F0B4FB431C5800C0180338FDD2019A78
:10259000236852015340E0221A4080235B01234309
:1025A0001A604A46012A2FD9802380229B012343A7
:1025B00012011A60300000233A005946676000F0AB
:1025C000D3FB53465851012003B03CBC904699467A
:1025D000A246AB46F0BD4346012BC4D1C023032223
:1025E0009B0123431A60023AA3681A42FCD0019A65
:1025F000236852015A40E0231A4080235B012343A1
:102600001A600A4AAD0092464246216851400322B0
:102610000A401A60012243469A40A3681A42FCD03D
:10262000C2E70020D0E7C04600800040B40D002083
:1026300030B50C2083B000F0B3F9FEF787FD002819
:102640000ED0994B994A1A605A609A60DA601A6102
:102650005A619A61DA611A62954A5A6203B030BDD2
:10266000944CA06700F03CFA0122934B1A60636C13
:10267000012BFCD10322914B1A608E4A936B012BE4
:10268000FCD1013301218E4A8E480093043300F0BF
:1026900037F905238C4A009301218C4800F030F96A
:1026A0008B4B5A68FF2A02D8802252005A6080223F
:1026B0007D4C824B21691201854D1A60002907D09B
:1026C000606900F013FB431C5800C0180338FDD2AA
:1026D000E0217F4B02201A681140802252012A43D8
:1026E00011601968484003210140116004219A6873
:1026F0001142FCD08022802192012A4309011160FD
:10270000802252005A60734B2361734B5968FF2932
:1027100000D85A6003227048674B01211A600200FA
:1027200093681942FCD0E02513681D4080235B01AB
:1027300003431D6012684A400321114019600221C1
:10274000654A93681942FCD0802380219B01034392
:10275000090119608021614B490051606361604B40
:102760005A68FF2A00D8596080225E4BE169120145
:102770005B4D1A60002907D0606900F0B7FA431C6E
:102780005800C0180338FDD2E02255490B681A40A2
:1027900080235B012B431A60802380229B012B4303
:1027A00012011A608022414B52004A60E3614E4B95
:1027B0005968FF2900D85A6080224C4B216A1201C7
:1027C000494D1A60002907D0606900F08FFA431C58
:1027D0005800C0180338FDD2E02243490B681A4064
:1027E00080235B012B431A60802380229B012B43B3
:1027F00012011A60802380225B004B602B4BD202B7
:1028000023623B4B5968914200D25A608022394B77
:10281000616A1201364D1A60002907D0606900F024
:1028200065FA431C5800C0180338FDD2E022304935
:102830000B681A4080235B012B431A60802380229F
:102840009B012B4312011A608023DB024B60184B63
:102850006362294B5A68FF2A02D8802252005A60CC
:102860008022264BA1691201234D1A60002907D04E
:10287000606900F03BFA431C5800C0180338FDD2D1
:10288000E0221D490B681A4080235B012B431A602C
:10289000802380229B012B4312011A6080235B005E
:1028A0004B600E4BA361D9E6B40D0020006CDC0236
:1028B0001BB70000008000403CB0004030B000403A
:1028C000002F685900800240008C864700C00240FB
:1028D00030800040001BB7003C8000404059730727
:1028E0005480004054B000406080004060B0004020
:1028F0006C8000406CB000404880004048B0004010
:10290000F8B50400214817001D000E0000F0EEF994
:102910000100380000F0EAF9069A2B041203134371
:102920002268002A21DB1A4AA21851424A4180211A
:1029300049018C4652420A40164962440A601649CF
:102940000A60164917008D68AF43FBD1C021221DD4
:102950008901114321222660A0600A602268002AB2
:10296000FCDAE36008230B60F8BD3F2221680A40CF
:10297000B242D8D1A2681205120D8242D3D1EE2103
:10298000E268C9020A409A42CDD1EDE7001BB700C8
:102990000040FDBF00E0004000F0004000C00040EB
:1029A0008023024A9B000343D362704700800540A6
:1029B000024B1A68024B5A607047C0465C130020F5
:1029C00000800540184B0200184810B5D8618020DF
:1029D000174BC0051860174C1748046000290AD02F
:1029E000E021164BC9041960002A09D18022134B3B
:1029F00012061A6010BDE021C9041960002AF5D042
:102A000080235001801A8000801800015B049842E6
:102A100000D30B4880220B4BD2051860024B586044
:102A2000064B1A60E6E7C046008005402131B76AD0
:102A300000B00540FCFF01000820014000A0054057
:102A4000FFFFFF005C13002010B5140080221B4B19
:102A5000D2051A6000281AD00123194A1843194BCD
:102A6000DA61194A42401A62596298628022134B15
:102A7000D2051A601549164A1160E022D2041A6084
:102A8000002C07D18022134B12061A6010BD0D4B8B
:102A9000D861EBE780236201121B92001219120128
:102AA0005B049A4200D30C4A0C4B1A60054B5A60E7
:102AB0008022084BD2051A60E8E7C04600B0054006
:102AC000D3C007B0008005402D3FF84FFCFF010048
:102AD0000820014000A00540FFFFFF005C1300201C
:102AE000AA23064A1B0113602F230549D360054B17
:102AF00019605368002BFCDA7047C0460040024062
:102B000000B0FA00006002402C4B2D4A70B51A60EC
:102B10002C4A2D4B2D491A6010008B689843FBD12D
:102B20002B4C2C4B9C4209D2013B1D1BAD0801359F
:102B3000AD002D1908CC9847AC42FBD1FFF778FDCA
:102B4000254A214B1A60214A9368DB018033FBD16F
:102B50004022224B224C234D9A675A671A67DA6645
:102B6000AC4208D223682000002B21D00834FEF7A5
:102B700045FEAC42F6D31C4C1C4DA168C022280077
:102B800000F0D2FBA560FEF75BFBFEF7FBFDFEF756
:102B9000EFFF174C174B9C4209D2013B1D1BAD08A0
:102BA0000135AD002D1908CC9847A542FBD170BD69
:102BB0000834FEF715FEAC42D4D3DCE700E0004059
:102BC000BFCDFBFEFE7F3C0000F0004000C0004097
:102BD000BC070020CC070020FFFFFF0100F00140F0
:102BE000B4070020BC07002000ED00E0000000203A
:102BF000CC070020D407002000BEFDE710B5FFF78A
:102C0000FBFFC0460FB400B5084883B000F0B2FC2B
:102C1000049B002B07D005A91800019100F018F8BB
:102C2000034800F0A7FC0120FFF7E6FF0464001052
:102C30001464001010B50148FFF7E4FF1864001099
:102C400010B5002800D110BD00F048FCFBE7C046DD
:102C500010B5094A0300146884B0002C08D0012282
:102C600000910648524203A9A047012004B010BDBC
:102C700000F080FC0020F9E758130020412C0010E0
:102C800001480421014B184750070020B12C0010C7
:102C9000142310B50100188804331B88984710BD11
:102CA000162310B50100188802331B88984710BD01
:102CB000F0B5C64600B5002916D01423040001253E
:102CC00098461827890046184346216818883B888B
:102CD000984701C4431E984140420540A642F3D1A3
:102CE000280004BC9046F0BD0125F9E7114A936F16
:102CF0009B0813D210665166002905D0FFE7FFE755
:102D0000FFE7516F106F704704B5002801D0002015
:102D1000C04303F009FB002104BDC046F0B5146EAA
:102D2000556E576F166FFFF7E5FF146655665767C8
:102D30001667F0BD000000D094464A4A926F920890
:102D4000624601D228E0C046F0B5464E346E756E3C
:102D5000776F366F00F020F89446424A1466556645
:102D6000576716676246F0BD94463E4A926F9208D6
:102D7000624601D254E0C046F0B53A4E346E756EEC
:102D8000776F366F00F04CF89446364A14665566F5
:102D9000576716676246F0BD002B24DB11D000296F
:102DA0003EDA00B5C943404200D1013100F038F8A5
:102DB000C943404200D10131DB43524200D10133CB
:102DC00000BD002AEBD1002801D1002905D0002048
:102DD000C90FC90701D1C043410800B503F09CFAEF
:102DE0000022002300BD00B500290ADBDB4352426C
:102DF00000D1013300F014F8C943404200D1013141
:102E000000BDC943404200D10131DB43524200D1F1
:102E1000013300F005F8DB43524200D1013300BD1D
:102E2000002923D1002B18D1002A0CD0BC460D4F0D
:102E300038667A6600210023FFE7FFE7FFE77A6F35
:102E4000386F67467047002801D00748010000B579
:102E500003F062FA0022002300BD02000B000020F4
:102E600000217047000000D0FFFFFFFF002B00D0C3
:102E7000BFE0130C28D1002AE7D080B4114F396687
:102E80007A66FFE7FFE730B4040C7B6F396F1B04F1
:102E900023433B667A66FFE7FFE7FFE7C04684B25D
:102EA0007B6F3D6F1B0423433B667A66FFE7FFE7BA
:102EB000C04600232C042D0C7A6F386F001969412D
:102EC000B0BC7047000000D0F0B594460025140E49
:102ED00001D112020835140F01D112010435940FEB
:102EE00001D192000235D40F01D152000135D40B2B
:102EF0000134254F7C66254C3C660E0C93B2FFE7EF
:102F0000FFE7FFE73C6F6643360C7703BE4673432B
:102F1000DF0B5B04C01AB941130C7343DB18C91AE9
:102F2000CE086643360CB64493B273431F0F1B01A1
:102F3000C01AB941130C73431F0B1B05C01AB941CA
:102F4000860D8F023E436643360C092D24DB520A60
:102F50007243801A7703460A6643360C16235B1BBE
:102F6000DE40DF40BF1964466643821B704604356D
:102F700006330100D940A840C01900D30131A24254
:102F800006D20023F0BD0000000000D0FFFFFFFFCD
:102F9000121B0130F3D3F1E709277F1BFE40644683
:102FA000A2B27243801A00D20139220C7243130C70
:102FB0001204821A99410B00704604351337010040
:102FC000F940A840801900D30131002B02D1A24260
:102FD0000AD2F0BD013000D30131121BFAD2013BFD
:102FE000F8D1A24200D2F0BD013000D30131121B52
:102FF000F7E7F0B51C0C00D080E00CB400251C0AEB
:1030000004D11B02160E3343120208351C0B04D1E7
:103010001B01160F3343120104359C0B04D19B0096
:10302000960F334392000235DC0B02D192185B41BC
:1030300001351C00971864410134464F7C66464CAC
:103040003C660E0CFFE7FFE7FFE7C0463C6F6643B8
:10305000360C7703BE4697B27743C01B00D20139C6
:10306000C01B00D201399FB27743C91BC91B170C83
:1030700077437E04FF0B801BB941CE086643360CB4
:103080000C2D33DBB644120B1F053A431B0B97B2D2
:103090007743C01B00D201399FB27743C91B170C7D
:1030A00077433E043F0C801BB941860D8F023E439F
:1030B000664329277F1BFE400C3D7746AF40BF1972
:1030C00030BCA2B2ABB272437343801A9941220C56
:1030D0007243130C1204801A994102000B0001374D
:1030E000001BA941F9D2781E0021F0BD0C277F1BDF
:1030F000FE4077467F0BAF40FF19E0E700245D1CE0
:1031000007D0144F7D663966FFE7FFE7FFE7FFE76B
:103110003C6F95B29EB265436643401BB141150CAE
:103120001E0C6543664336042F0C3E432D04401BA2
:10313000B141994204D202000B0020000021F0BDF1
:1031400001D19042F7D3801A994101349942F2D3C8
:10315000F6E70000000000D0FFFFFFFF132370B56B
:103160001D78012D15D010DD2748FFF799FD274C5C
:1031700001008022200000F0D7F8022D06D024485C
:10318000FFF786FD234B186070BD204C224AA264D5
:10319000F5E72E001D4C204AA3085B421E401D424D
:1031A0002FD0330022602020B1006118801B0A60FC
:1031B0004A608A60CA600A614A618A61CA610A62B9
:1031C0004A628A62CA620A634A638A63CA630A6499
:1031D0004A648A64CA640A654A658A65CA650A6679
:1031E0004A668A66CA660A674A674008102803D199
:1031F0008A67CA67A264C2E71E339B00E250A264DA
:10320000BDE70023CFE7C04653440000D813002099
:103210004C3300008C1300201D32001007B56046AF
:1032200001880A0A0230DF2AFAD1C9B2820804D31F
:10323000028840880004104300E00068014A5050B2
:10324000039007BDD813002051434343C9188C464F
:10325000110C83B24B4310B4040C614392B280B2A0
:10326000504362431C041B0C001910BC5941130449
:10327000120CC0185141614470470000132310B56F
:1032800012481C78FFF70CFD0100012C0AD003DD69
:1032900080220F4800F048F80E48FFF7F9FC0E4B6B
:1032A000186010BD0A4C5422200000F03DF80B4B72
:1032B0006365A365E36523666366A366E3662367C8
:1032C0006367A367E3672362E361E5E753460000B2
:1032D000D81400204C3300008C130020E132001081
:1032E00007B5604601880A0A0230DF2AFAD1C9B25E
:1032F000820804D3028840880004104300E000687C
:10330000014A5050039007BDD81400200148042101
:10331000014B184760070020B12C0010014B1B68BF
:103320001847000060070020014B5B681847000049
:1033300060070020030010B508001B6811009847C3
:1033400010BDC046F8B54746CE4680B5437D070060
:103350000D001600002B37D000240020002A1EDDAF
:103360004B1E98461B4B9946002C2BD043461B5DA9
:103370000D3B5A425341DBB22A5D0A2A13D0013475
:10338000A642F1DC864203DD311A3B6828189847D3
:10339000AD19013D2B780D3B5A4253413B750CBC96
:1033A00090469946F8BD002BE9D1A04203DA211AD4
:1033B0003B6828189847484602213B6801349847E3
:1033C0002000DDE73B7DD7E7036811002800984720
:1033D000E5E7C046A8640010F0B5DE4657464E4605
:1033E0004546E0B585B017001C0006000D00FEF74D
:1033F00095FD0023324A12184B41002B5BDB31490B
:1034000008008A4602F0A8FF01906B1C03D130002F
:1034100002F03AFF0500002C28D12B4B98462B4B8D
:103420001C68002C15D0002F23D1294F02E02469FD
:10343000002C0ED02368002BF9D03B68002B01D064
:10344000A342F4D120002A003100C0472469002C97
:10345000F0D1019B002B2AD1681E8541E8B205B04E
:103460003CBC90469946A246AB46F0BD194B9846E7
:10347000D5E7174B994602ABDF1D0A239B4602E0B6
:103480002469002CE5D02368002BF9D04B461B683B
:10349000002B01D0A342F3D12A0031002000C04705
:1034A0005B460122390020003B70C047E8E75046E8
:1034B00002F02AFFD0E70122074B52429FE7C046A5
:1034C00040420F00B407002045330010440E002096
:1034D000500E002035330010FFFFFF7FF0B5CE46C1
:1034E000474680B583B06B460500DE1D3070FEF7A1
:1034F00015FD00231A4A12184B41002B2CDB1949E9
:103500000800884602F028FF174B07001C68002CB3
:1035100016D0164B994602E02469002C10D023687F
:10352000002BF9D04B461B68002B01D0A342F3D1EE
:10353000200001223100FFF705FF2469002CEED1A5
:10354000002F05D1280003B00CBC90469946F0BD71
:10355000404602F0D9FEF5E70122054B5242CEE784
:1035600040420F00B4070020440E0020500E0020FF
:10357000FFFFFF7F70B5040002F086FE002301000C
:10358000050001222000FFF727FF084B1C68002CD4
:1035900006D06368002B05D098472469002CF8D129
:1035A000280070BD2469002CF3D1F9E7440E0020F7
:1035B000F0B5CE46474680B583B06B460500DE1DAC
:1035C0003070FEF7ABFC00231A4A12184B41002B57
:1035D0002CDB19490800884602F0BEFE174B070095
:1035E0001C68002C16D0164B994602E02469002C6A
:1035F00010D02368002BF9D04B461B68002B01D05C
:10360000A342F3D1200001223100FFF793FE246989
:10361000002CEED1002F05D1280003B00CBC904641
:103620009946F0BD404602F06FFEF5E70122054BDA
:103630005242CEE740420F00B4070020440E002063
:10364000500E0020FFFFFF7F0A4A1368002B05D1B0
:103650000CE01A001B691032002B07D09842F8D1F9
:10366000002902D103691360016170470029FCD071
:103670001060FAE7440E002010B500F037FA10BDD4
:10368000F0B5CE464746040080B583B0FEF746FC51
:103690002600002736184F41002F32DB3D001B4B20
:1036A00099461B4B98464B461C68002C03D117E0EB
:1036B0002469002C14D043461B68002B01D0A34280
:1036C000F6D1A368002BF3D0012101A89847002868
:1036D000EEDD6B46187903B00CBC90469946F0BD00
:1036E0000C4B5A6AAA4207D39B6AB34201D2AA4240
:1036F00002D001204042EEE701200021FEF718FC35
:10370000D1E70126044D7642C9E7C046440E0020A9
:10371000500E002000400540FFFFFF7F0A4B70B5B0
:103720001C6806000D00002C08D0E368002B06D0B2
:103730002900300098472469002CF6D170BD246917
:10374000002CF2D1FAE7C046440E00207047C04674
:103750000022014B1A707047CF1300204B790020D4
:10376000FF2B0BD18B79002B08D1CB79012B05D105
:10377000082A03D98A78024B09301A707047C0466C
:10378000CF1300200120704770B5002915D11549CD
:103790005379107909781B0203430020994200D025
:1037A00070BD5378012B0AD0022BF9D1002064227E
:1037B0000021FFF749F90120F2E70120F0E79478B2
:1037C000D278050012021443D20502D5620A934052
:1037D0001D000548FFF75CFA7F2103002140280007
:1037E0009847C046CF1300205542000001230370C4
:1037F00000487047AC6400104A780B7812021A43F4
:103800008B7810B51B041A43CB781B061343962202
:10381000D200934200D010BD0348FFF739FA0021CF
:10382000030008009847C04655420000024B18604C
:10383000024B19607047C046A80D0020AC0D002057
:1038400010B5024B1878FDF737FD10BDD0130020DE
:10385000114B70B51A68002A1AD0EFF3108172B6B6
:1038600010680028FCD0BFF35F8F00220B4859601E
:1038700002701B68BFF35F8F1A6081F31088002409
:103880000025074B1878FDF717FD2900200070BDB3
:10389000FA240025A400F4E764130020D1130020CB
:1038A000D013002070B5040000200E0001F0A0FF2E
:1038B000002832D0002001F0B3FF00282DD0FEF701
:1038C0002DFB0023164A12184B41002B21DB154D0E
:1038D000280002F041FD00281FD0002001F088FFE1
:1038E000002808D1032401F015F86442280002F0F2
:1038F0000BFD200070BD002001F092FF0028F1D0E8
:1039000021003200002001F097FF041EEED1033C9D
:10391000ECE70122044B5242D9E703246442E8E772
:1039200040420F0094130020FFFFFF7FF0B5D64602
:103930004F464646C0B50D000700FEF7EFFA0023DC
:10394000344A12184B41002B56DB33490800884695
:1039500002F002FD002804D11CBC90469946A24604
:10396000F0BD002001F044FF002849D00024002DC4
:103970003EDD2A4B9A46994611E03919002001F0A4
:10398000CFFF060000F0C6FF002001F08DFFFEF71C
:10399000C5FA4B4618605960A419A54228DD0020DD
:1039A00001F0D8FF2E1B0200B04200DD3200002AD9
:1039B000E3D100F0AFFF002001F076FF002001F01E
:1039C00017FF002814D0002001F0C4FF0028E4D124
:1039D000FEF7A4FA53460E001A685B68002184467D
:1039E0000F4812184B419E4202D8D6D19445D4D9E3
:1039F000404602F089FCAFE701220A4B5242A4E79D
:103A000000200021054B18605960404602F07CFC04
:103A1000A2E7C04640420F0094130020D8080020BF
:103A200020A10700FFFFFF7F30B5294C85B00021A2
:103A3000200002F081FC00281CD1264B1A68002AC5
:103A400016D0EFF3108172B610680028FCD0BFF3D7
:103A50005F8F01242048596002781B68D2B204703D
:103A6000BFF35F8F0020186081F31088002A14D004
:103A700005B030BD00F04EFF002001F0D1FE050082
:103A8000200002F041FC002DF2D0144B1B68002BEB
:103A9000EED0134A10689847EAE7FEF79FF8040053
:103AA000FEF73CFAFA220023920012184B41002B39
:103AB00009DB01210291002101910A4920000091B6
:103AC000FEF790F8D4E70122074B5242F1E7C046D7
:103AD0009413002064130020D1130020A80D0020AF
:103AE000AC0D002051380010FFFFFF7FD02310B530
:103AF0001B0684B01C68FEF771F8FEF739F9A04286
:103B000002D0002004B010BD264B1B7802F032F921
:103B10002548FDF765FE0120FDF746FEFF23234CF7
:103B2000234920701840FDF7EDFB20780121FDF7B7
:103B3000B1FB0520FDF7C8FB002822D1FEF74EF8A7
:103B40000400FEF7EBF9FA220023920012184B4111
:103B5000002B22DB01210291002101911549200057
:103B60000091FEF73FF80822040000211248FFF7F9
:103B7000D5FB002CC5DB11480121FFF765FD0120B5
:103B8000C0E700220E490520FDF7E6FBFDF766FBC6
:103B900001000948FDF74EFEEDE70122094B5242B4
:103BA000D8E7C046B866001094130020D013002058
:103BB000293A0010513800106413002070070020CB
:103BC00041380010FFFFFF7F004870476465001018
:103BD000004870471065001070B50400164803785F
:103BE000002B20D0002C06D1C1241448144BA40073
:103BF0004380048070BD052C1CD8124B0F48A400D4
:103C0000E558811C002304E001330A800231132BA4
:103C10000DD0EA5CDCB2002AF6D1C0230134640086
:103C20009B001C43E5E7112100F016F8DAE7CA24EF
:103C3000A400DEE70020DDE7B01300201C0E00200A
:103C4000090400007865001010B5024800F0E2F8A1
:103C500010BDC0468413002030B54B1E012900D191
:103C6000B0E06B4A11780D112C0030349F2900D937
:103C7000ABE00470012B00D1C7E00F211478214084
:103C80000C003034092900DDA1E04470022B00D182
:103C9000BBE051780D112C0030349F2900D999E0F8
:103CA0008470032B00D1B0E00F21547821400C0028
:103CB0003034092900DD8FE0C470042B00D1A4E06A
:103CC00091780D112C0030349F2900D987E00471C0
:103CD000052B00D199E00F21947821400C0030345D
:103CE000092900DD7DE04471062B00D18DE0D178FB
:103CF0000D112C0030349F2900D975E08471072BF9
:103D000000D182E00F21D47821400C003034092901
:103D100000DD6BE0C471082B00D176E011790D1144
:103D20002C0030349F2964D80472092B00D16CE038
:103D30000F21147921400C00303409295BDC4472D6
:103D40000A2B62D051790D112C0030349F2955D89F
:103D500084720B2B59D00F21547921400C00303440
:103D600009294DDCC4720C2B4FD091790D112C0018
:103D700030349F2900D9073404730D2B45D00F210F
:103D8000947921400C003034092901DD37310C00D1
:103D900044730E2B39D0D1790D112C0030349F296A
:103DA00000D9073484730F2B2FD0D1790F220A400A
:103DB00011003731092A01DC30321100C173102B98
:103DC00023D010300023037030BD073451E7373162
:103DD0000C005AE7073463E737310C006CE707340F
:103DE00075E737310C007EE7073487E737310C0081
:103DF00090E7073498E737310C00A0E70734A7E7CE
:103E000037310C00C4720C2BAFD1C018DAE7C046B2
:103E10008413002030B5002589B004000922002158
:103E200001A80095FFF77AFA0922002105A8049558
:103E3000FFF774FA4B236A466846137004A90D22F3
:103E400002F05AFA1521082220006944FFF76CFAA3
:103E500009B030BDF0B5982357464546DE464E467C
:103E60006C4AE0B5D75880253C006D02883B9A46E5
:103E700083B02C402F420FD001222321664B00201B
:103E80005A54DA70654901F075FA8022644B920247
:103E90001A65644B2C009A46FB0617D480235B01FD
:103EA0001F4245D18023DB011F4200D088E08023E0
:103EB0001B021F4200D091E0BC4200D0A5E003B03D
:103EC0003CBC90469946A246AB46F0BD514B9B6D1B
:103ED0009846002B27D0524B00259B46012399463C
:103EE00043460126B8461F0004E001357600EDB2D6
:103EF000202D17D03742F8D05B469E654B466C08A4
:103F0000AB436400E418444B64019C4664442000C5
:103F100000F08CFB00286CD10135B743EDB2760080
:103F2000002FE5D1474680235B0154461F42B9D09C
:103F30001C430023374A00211360384A3A489360F3
:103F4000D3603A4A9360D360394A9360D360394A68
:103F50009360D360384A9360D360384A9360D360EB
:103F6000374A9360D360374A9360D360364A936090
:103F7000D360364A9360D360354A9360D360354A44
:103F80009360D360344A9360D360344A9360D360C3
:103F9000334A9360D360F0229200FFF7BFF9314BB0
:103FA000314A00211A600020012201F0B9F9802273
:103FB0001B4B12031A658023DB011F4200D176E7F9
:103FC0000122042100201C4301F01AF91022144B95
:103FD0001A6580231B021F4200D16DE701220521D3
:103FE00000201C4301F00CF980220D4B12011A65D0
:103FF00062E74B46A28AA17800200093002301F0DB
:10400000E1F9200000F050FA86E7210017487940D6
:10401000FEF7F8FD00001150540E00200000105073
:104020000030115010000100940E002008001050C4
:104030001000105018001050200010502800105090
:104040003000105038001050400010504800105000
:104050005000105058001050600010506800105070
:104060007000105060130020800110509065001007
:1040700010B501210520FDF70DF910BD10B5002286
:104080000021024800F036FA10BDC046740E002030
:104090008022024B5202DA647047C0460020115061
:1040A000F0B5C64600B5060000F0D8F90C23364D31
:1040B0000520AB673549FDF725F940239846344C78
:1040C000402200212000FFF729F941460023012763
:1040D00000222120A1832F4967706380A277A1600D
:1040E0000B6022545F3060844046A087023822541F
:1040F00029492A4A6360E160A2621360284A636228
:10410000E1629360D360274A20009360D360264A1F
:1041100000219360D360254A40309360D360244AE5
:104120009360D360234A9360D360234A9360D36043
:10413000224A9360D360224A9360D360214A9360FD
:10414000D360214A9360D360204A9360D360204AB1
:104150009360D3601F4A9360D3601F4A9360D3601B
:10416000F0229200FFF7DAF81C4B1D4A30001A606B
:1041700080239B052F64EB6490231A4AEA50FFF7D3
:1041800087FF04BC9046F0BD00001150553E001062
:10419000540E002084001050000110508000105078
:1041A000000010500800105010001050180010505F
:1041B00020001050280010503000105038001050CF
:1041C000400010504800105050001050580010503F
:1041D00060001050680010507000105060130020F4
:1041E0008001105010D001000B785B0602D14B7893
:1041F000052B00D070478A78014B1A60FAE7C04659
:1042000000001150F0B5CE464746072380B54879E7
:104210008E780A790340C8787F21800731401B02DD
:10422000F40913434F00820F944691462A4D3A19E0
:104230005201AA1896700126664056706046002604
:104240009383D6709077CA00012C29D023488446E6
:10425000880162448446AC4460468260166000294E
:1042600029D01F4AC9009046414441603F223F3354
:1042700093434A46022A00D15B001A493F190A6853
:104280007F01D3180B60184BED195340EA604A4682
:104290009006184380231B0618436B68186010E0D3
:1042A00012488446880162448446AC446046826277
:1042B000166000290AD1002364012D196B600C4B94
:1042C000EB6001200CBC90469946F0BD064AC9003F
:1042D000904641444162C9E7540E002084001050CA
:1042E0000400105060130020000010508000105097
:1042F0000001105000231C4A10B59360D3601B4A84
:1043000000219360D3601A4A1A489360D3601A4A16
:104310009360D360194A9360D360194A9360D36065
:10432000184A9360D360184A9360D360174A936029
:10433000D360174A9360D360164A9360D360164ADD
:104340009360D360154A9360D360154A9360D3603D
:10435000144A9360D360F0229200FEF7DFFF124B05
:10436000124A1A6010BDC0460000105008001050DC
:1043700010001050940E0020180010502000105013
:1043800028001050300010503800105040001050DD
:10439000480010505000105058001050600010504D
:1043A0006800105070001050601300208001105001
:1043B00010B57F200C0020404000E40911000019D6
:1043C0001A00034B4001C01800F094F8012010BD02
:1043D000540E00207F23180010B508400B420BD06C
:1043E000C9098022400040180649400140181201C6
:1043F000002100F05FF810BD0223034AC9095B1ACF
:104400009366EEE7540E0020002011507F23180021
:1044100010B508400B4200D110BD00234000C9096F
:10442000411804484901401800220349C37000F0B4
:1044300041F8F1E7540E0020FFF7FFFF7F2110B590
:104440008078044AC3099B0001409A580248FEF74D
:10445000D9FBC04688070020A465001080220D4BC0
:10446000520410B51A600C4B0C491A6010008B688E
:104470009843FBD10A4C9C2200212000FEF74EFFFE
:104480008022002152010748FEF748FF0923636795
:1044900010BDC04600E0004000F0004000C00040F9
:1044A00000001150000010500023037443828382E7
:1044B0008361704710B58368002901D01C682140D2
:1044C000002A11D08024E400114322420CD01A6843
:1044D00022420BD1064A0A401A60FFE7FFE7FFE7D6
:1044E000FFE7FFE7FFE78368196010BDFFF7A6FF4E
:1044F000FFFBFFFFF0B5C646002300B58382013302
:104500000374436804001E68838B81611F1C9342FF
:1045100000D9171C8025BFB2D21BE37892B2ED0000
:1045200062823D43002B02D09025AD013D43012026
:104530004340E3706378002B51D0002A1DD1A023A3
:10454000DB011D43354B1B6C354B33408026B605D4
:104550001E436368A2681E6013685B055AD4314B22
:104560002B401360FFE7FFE7FFE7FFE7FFE7FFE709
:10457000A3681D6004BC9046F0BD80235B011D4311
:10458000264B1B6C9B0703D4A378DB09012BDBD1E3
:10459000A38B191C934200D9111C80278BB2FF00FA
:1045A000D21A98461F43E37892B26282002B03D05E
:1045B00090274146BF010F4301214B40E3706378D0
:1045C000002B19D0002A02D18023DB011F43164B98
:1045D0003F043340A026F6053D431E43B9E73A00A9
:1045E000E068FEF7A1FEA369628A9C4680236744C7
:1045F0001B02A7611D43A0E7E0684246A169403065
:10460000FEF792FEA369628A4344A36180231B02E2
:104610001F43D7E72000FFF711FFC04600001150ED
:10462000FFFFFFAFFFFBFFFFFFFFFFDFF0B5C64659
:1046300000B5067C0400002E00D1D3E083681A6820
:104640001D684378AD05AD0D002B51D1838AEB1861
:104650009BB28382A18B8D4207D200236382636861
:104660001B68300004BC9046F0BD626812685200BE
:1046700002D58D4200D175E0638A002BF1D06268CB
:104680001F1C16688B4200D90F1C8025BFB2DB1B94
:10469000E2789BB2ED0063823D43002A02D0902570
:1046A000AD013D4301214A40E2706278002A68D0A2
:1046B000002B2AD1A023DB011D434F4B1B6C4F4B1A
:1046C00033408026B6051E436368A2681E601368E7
:1046D0005B0500D58DE04A4B2B401360FFE7FFE7F9
:1046E000FFE7FFE7FFE7FFE7A36800261D60B8E7E5
:1046F0002A00C1688069FEF717FEA38AA269EB1839
:104700009BB25219A382A261A4E7802252011543F1
:10471000394A126C920703D4A278D209012ACED169
:10472000A28B111C9A423FD880278AB2FF009B1AA5
:1047300090461743E2789BB26382002A2FD1012171
:104740004A40E2706278002A3ED0002B02D18023DA
:10475000DB011F432B4B3F043340A026F6053D43AE
:104760001E43B1E7A26815686278AD01AD0D002A5D
:104770001CD1EB18A3828D4200D37DE70023638216
:104780006FE73A00A169E068FEF7CEFDA3699C4699
:10479000802367441B021D43A761638A88E7902733
:1047A0004146BF010F43CAE7191CBDE7E1682A0073
:1047B0004031A069FEF7B8FDA38AA18BEB18A38254
:1047C000A3695B19A361D6E7E0684246A16940305E
:1047D000FEF7AAFDA3694344A36180231B021F4384
:1047E000638AB2E77F238178074A08481940FEF7B9
:1047F00009FA2000FFF722FE00001150FFFFFFAF73
:10480000FFFBFFFFFFFFFFDF88070020C4650010EC
:10481000024B5878431E9841C0B27047340C0020B8
:10482000024B18784007C00F7047C046340C002078
:10483000014B18787047C046C8130020F8B54746AA
:10484000CE4680B5294F05003B78002B04D00120CF
:104850000CBC90469946F8BD532200212448FEF72F
:104860005DFD244C2000FCF7BBFF234B1C60234C58
:1048700020001C30FCF7D0FF200001F0C1FC204BD1
:10488000204E1C60204B9846002B04D03000FEF7D1
:10489000ADFF1E4B1860424600243378002A1DD01D
:1048A0001B4A9046194A91469C4210D31BD143465D
:1048B000984701343378E4B2A342F5D22800FFF7D9
:1048C000EFFB2800FFF7D4FB01233B70BFE74A460C
:1048D000630012681B19DB009B58E9E701F046F8FA
:1048E0003378002BEAD000231B68FFDEC8130020BA
:1048F000340C0020EC0B0020880C002090070020D6
:104900008C0C0020C7130020ED370010FC0800209D
:104910006D590010F0B5DE4657464E464546E0B5A7
:104920008BB001F02DFA002800D144E1C24BC34EF8
:104930009B4607AC3568EA69EFF3108372B61168DD
:104940000029FCD0BFF35F8F2B622100280001F00B
:10495000CFFAEA692B6ABFF35F8F0021116083F3FE
:104960001088002800D126E16378082BE2D85A4647
:104970009B00D3589F466368002BDBD0A068984704
:10498000D8E77F222179AE4B0A405500C8095B1950
:104990001B18180001273030C578BD43C570C57895
:1049A0000337BD43C570002A00D10BE1A54ADB7C6B
:1049B000002A06D0A44A1278934200D291E19B1AB1
:1049C000DBB2002B00D0F6E0A04D62792078A3681E
:1049D000A847AFE701229A4F01213B7804201343F7
:1049E0003B703323FA5C8A43FA54FA5C8243FA54EC
:1049F0000133FA5C8A43FA54FA5C8243FA5423780E
:104A000000209A4600F064FE602223791A40602A52
:104A10000DD0402A00D1F2E0DB06DB0E012B00D1E5
:104A20006AE1022B00D121E1002B00D1F6E02078D1
:104A30000021FFF7CFFC80212078FFF7CBFC79E73E
:104A40007F4B1B78DB0700D474E7814B002B00D130
:104A500070E700E000BF6DE7794B1A78D20700D409
:104A600068E77C4A002A00D164E718780007C00F85
:104A700000E000BF5EE7744D724A00272B78002AE1
:104A800000D1B6E0744A90469F4208D39F4200D0BE
:104A9000B2E00137FFB29F4200D94BE7F6D2414660
:104AA00009687A008C46D219D20062445269002A01
:104AB000EFD02078904701372B78FFB29F42E3D99F
:104AC00038E72378604D5F4A984600272B78002A04
:104AD00000D186E0614A91465F4A92462A004546E7
:104AE0009046BB425ED800D078E04B4628009847FD
:104AF000434601371B78FFB2BB42F2D2504D5322DE
:104B000000212800FEF70AFC1022FF21E81CFEF716
:104B100005FC28002022FF211330FEF7FFFB00F0E8
:104B2000CDFD4F4B002B00D104E700E000BF01E7B3
:104B30002378454D434A984600272B78002A47D0D2
:104B4000464A9146444A92462A00454690469F422C
:104B50001FD343D14B4628009847434601371B7863
:104B6000FFB2BB42F3D2364D532200212800FEF79C
:104B7000D5FB1022FF21E81CFEF7D0FB28002022E5
:104B8000FF211330FEF7CAFB00F098FD2379AB70CC
:104B9000D0E6524612687B009446DB19DB00634482
:104BA0005B68D8E7524612687B009446DB19DB004D
:104BB00063445B689AE70BB03CBC90469946A246BA
:104BC000AB46F0BD62792078A36800F095FDB1E6B0
:104BD000404600F009FF2B78002BC4D000235B680F
:104BE000FFDE404600F000FF2B78002B00D185E768
:104BF000F4E7002B00D19DE600235B69FFDE194836
:104C0000002800D113E700F063FD0021504608AAF8
:104C100000E000BF002800D08CE608E7202A00D181
:104C20009FE0002A00D002E76379092B00D9FEE655
:104C30000D4A9B00D3589F46F86500108C0C00204D
:104C4000340C0020ED370010C7130020DD5B00108E
:104C50000000000000000000FC080020E9590010DE
:104C600000000000000000001C6600107023217A84
:104C70000B4200D0DBE60F330B405B00F818CD0988
:104C80000093CF4B4019C07C002B06D0CD4B1B7836
:104C9000984200D288E0C01AC0B200287ED1002A13
:104CA00000D03AE1C84B019363799846022342460B
:104CB00099469A43012A00D133E14346002B00D0A4
:104CC000B5E6009B06AAFB185D193035EB78023279
:104CD0009B07DB0F13805046022308A900F092FCCB
:104CE00028E65A00D318B94ADB001268D318002B03
:104CF00000D160E71D6968E6237A0F2B00D996E69C
:104D0000AF4AFB18DB78002A05D0AE4A12789342EE
:104D100064D39B1ADBB2002B00D088E6AC48AA4DC6
:104D200000F0D6FC00215046EB6808AA98470028FE
:104D300000D0FFE56022150023791D401A4200D003
:104D400075E663790A3B012B00D970E600F0C0FCE0
:104D500063790A2B00D145E1504608A900F03AFCDE
:104D6000E8E5237A0F2B00D961E6954AFB18DB783A
:104D7000002A06D0934A1278934200D2F5E09B1A9B
:104D8000DBB2002B00D052E691488F4D00F0A0FC22
:104D900000215046EB6808AA98473BE7002A00D05C
:104DA00045E6002301937FE743009C46874B604420
:104DB0001B68C0009C46030063440193002A00D195
:104DC00072E7002B00D132E6D86800F081FC019B2D
:104DD00000215046DB6808AA98471BE77B4A5D0024
:104DE000EB181568DB00ED18002D00D11FE6E86810
:104DF00096E7E388012B00D019E608223B7850465D
:104E0000934308A93B7000F0E5FB93E50220397855
:104E100006AB9A1C8B068908DB0F01400B4359E750
:104E2000A37901931A007B789A4207D07B78002BF4
:104E300000D047E1019B002B00D0DCE0019B5046F5
:104E400008A97B7000F0C6FB74E57B7806AA0232E5
:104E500013705046012308A900F0D4FB6AE5E088EE
:104E6000030AC0B20F2B00D9E1E55A499A008A58CB
:104E7000974608A800F032FC5046A179FFF7FEF8EB
:104E800002223B7813433B7054E5E388012B00D0AA
:104E9000CDE508223B785046134308A93B7000F04B
:104EA00099FB47E54C4B002B00D1C0E500E000BF6B
:104EB0000200D37891781B020B43504608A900F0FA
:104EC000A1FBA7E6454B002B00D1B0E500E000BFF9
:104ED000021E00D1ABE55046137808A900F092FB02
:104EE00098E62189FEF778FE021EF4D19FE5022B99
:104EF00000D172E13A4B002B00D198E500E000BFF1
:104F00000200002AD5D192E5FEF75EFE12230200D0
:104F100008A9504600F076FB7CE62B4B2C48019309
:104F200053E7E288002A09D14346012B28D0009B91
:104F3000FB185D193035EB789B0734D5019D002DAA
:104F400000D1F7E4EB681800009300F0C1FBEB68B8
:104F5000002108AA50469847002000F0B9FB3423EE
:104F6000FB5CDB0700D5E5E4F6E6184A5D00EB18CC
:104F70001568DB00ED18002D00D158E5E86805E75D
:104F8000009BFB185D193035EB789B07D6D5504652
:104F9000FFF73CFA4A46EB7893434246EB70EB78D6
:104FA0009343EB70CAE75046FFF714FA0222EB78FE
:104FB00013430122EB70EB781343EB70BEE7C0465E
:104FC000ED370010C713002084660010FC08002095
:104FD000F95A0010446600100000000000000000B4
:104FE0000000000006AB9A1C5046012308A915706A
:104FF00000F008FB9EE4581EC0B2FEF7E9FD002851
:1050000000D114E543780493022B00D00FE5012171
:10501000C3799A115B110A400B4052011B011343E3
:105020003A782F318A4313433B7009239946C3785A
:1050300082781B021343C31881440393039B4B459F
:1050400000D8C3E04B4601225B7800920B2B07D1BE
:105050004B46DB7800934B461B7899444B465B7874
:10506000042B00D0E3E44A46039B00259B1A9BB225
:1050700002935C4A5C4B1B78002A16D162E0AB427B
:1050800070D15A4A5A4B904649465046029A984720
:105090008446082802D9029A824269D2524B0135CD
:1050A0001B78EDB2AB4200D2C1E4AB42E7D9514A22
:1050B0006B0012685B199046DB00984443460592EA
:1050C0009B68E1E75046FFF715F9BB78464D454A26
:1050D000009300212B78002A2DD0464A90462A00C2
:1050E0000D0091469D421DD300D077E5424B5046BE
:1050F00098474B4601351B78EDB2AB42F2D25322B2
:1051000000213800FEF70AF91022FF21F81CFEF7F3
:1051100005F938002022FF211330FEF7FFF8009B2D
:10512000BB7087E6424612686B0094465B19DB0051
:1051300063445B68DBE7504600F056FC2B78002B9D
:10514000DDD04BE5029D49462A00504600F062FC46
:105150008446082801D9A84207D9234B1B78002B85
:1051600000D164E400239B68FFDE204B1D4D984670
:10517000009B012B22D0009B002B10D04B4699782E
:10518000002305E0D5700133009ADBB2934206D2CA
:10519000CA18D2B2BA18D078FF28F3D047E4380042
:1051A000E0462B0049466246133000F029FE0E4BC4
:1051B000C1441B78AB4200D340E738E442460C4B75
:1051C00092689A42DAD1049B0093D7E70B4B002BED
:1051D00000D133E600E000BF30E6FEF7F9FC020044
:1051E0008FE6C046ED370010C7130020846600101C
:1051F000155A0010FC080020E959001000000000BA
:1052000030B587B005000C000C2200216846FEF77F
:1052100085F86B461D705C70042C4FD009D8022CA9
:1052200034D0032C28D13C4B1A78520758D407B0FD
:1052300030BD052C20D1384B1A78D207F7D5042180
:105240001A788A431A70354B1C68E269EFF31081B3
:1052500072B61368002BFCD0BFF35F8F21626946E2
:10526000200000F013FFE269236ABFF35F8F002183
:10527000116083F31088DAE7284B1C68E269EFF3CA
:10528000108172B61368002BE6D1FBE70121224B97
:105290001A788A431A701A780331A2431A700022CE
:1052A0005A701A788A431A701C4B1C68E269EFF333
:1052B000108172B61368002BCED1FBE7164B1A781B
:1052C000D207B4D504211A780A431A70134B1C680C
:1052D000E269EFF3108172B61368002BBCD1FBE7D3
:1052E00004211A7803A88A431A7000210C22FEF7C1
:1052F00015F86B466A461D7305235373074B1C68EC
:10530000E269EFF3108172B61368002BFCD0BFF393
:105310005F8F216203A9A3E7340C00208C0C0020CE
:1053200070B584B001AC06000D000C2200212000F5
:10533000FDF7F4FF012363700D4B25711D68267086
:10534000EA69EFF3108372B611680029FCD0BFF34D
:105350005F8F2B622100280000F098FEEA692B6A1B
:10536000BFF35F8F0021116083F3108804B070BD1C
:105370008C0C0020002330B585B001AD6B80287007
:105380000633082202A86B70FDF7CEFF0C4B1C6899
:10539000E269EFF3108372B611680029FCD0BFF305
:1053A0005F8F23622900200000F070FEE269236A0B
:1053B000BFF35F8F0021116083F3108805B030BD0B
:1053C0008C0C0020F0B5C646804600B584B001AC18
:1053D0000F0016000021082220001D00FDF79EFF8F
:1053E00043462370072363700F4B65711D68277157
:1053F000A660EA69EFF3108372B611680029FCD049
:10540000BFF35F8F2B622100280000F03FFEEA69A6
:105410002B6ABFF35F8F0021116083F3108804B003
:1054200004BC9046F0BDC0468C0C0020F0B546464A
:10543000D6464F468046C0B50C0015001E00002A17
:105440002ED070239946184B00279A466378052B77
:105450000FD1E1788907890FB1420AD14A46A37872
:105460001A4206D153462000997800F08DFC00289E
:1054700005D100201CBC90469946A246F0BD2100F3
:105480004046FEF7BFFE0028F3D0A378DA09012AD0
:1054900008D0089A137023780137E418AF42D5DB9F
:1054A0000120E7E7099AF5E7340C0020702270B577
:1054B0008B7805000C001A4201D0002070BD064B0D
:1054C0002000997800F060FC0028F6D02100280028
:1054D000FEF798FEF2E7C046340C002070B57F243A
:1054E0000C406300144CC909E41864183034E378A4
:1054F000DB07DD0F002B18D1E3785B0701D528000F
:1055000070BD01210D4E4942306800F01DFFE37867
:10551000DB07DD0F002B0AD1E3785B0708D40422F8
:10552000E37801251343E37002E00025E7E7002557
:10553000306800F0E9FEE2E7340C0020880C00201F
:1055400070B50C0001210F4D4942286800F0FCFEA7
:105550007F2121404B000C49E409C9180919303159
:10556000CB780024DB0708D4CB785B07DC0F002B5B
:1055700003DA0422CB789343CB70286800F0C4FE92
:10558000200070BD880C0020340C002070B57F24F2
:105590000C4065000E4C06006419C809241830340C
:1055A000E5780020ED0700D570BD0125E07828439F
:1055B000E0703000FEF7FCFE0028F5D10122E37810
:1055C0009343E370E37803329343E370ECE7C04620
:1055D000340C002070B50A4E0500082230000C0083
:1055E000FDF7A2FE002161560023C943C90F280020
:1055F000F3600022C901B360FFF7C8FF70BDC04669
:10560000D80B0020F8B5CE4647469046294E80B5C7
:105610008146082230000D001F00FDF785FE43463D
:10562000B3600023F381EC79AB7924021C43231C83
:10563000BC4200D93B1C9FB2B381002C12D0002F7A
:105640001ED04346002B32D03B1C402F1ED89FB2A9
:1056500033787F2B1FD80021174A3B004846FFF7BD
:1056600095FF09E0002169560023C943C90F0022B4
:105670004846C901FFF78AFF0CBC90469946F8BD21
:1056800033787F2B10D980210022E6E740239FB298
:1056900033787F2BDFD9084C3A0041462000FDF7D4
:1056A00043FE80212200D8E700210022D5E7002018
:1056B000E2E7C046D80B0020F40B002010B51422FE
:1056C00000210248FDF72AFE10BDC046D80B00207D
:1056D000014B18617047C046D80B002010B5054C2F
:1056E000010008222000FDF71FFE0023A360E360F5
:1056F00010BDC046D80B0020F8B53A4C1D002378E9
:105700000600DA09C9098A4213D00020002D00D012
:10571000F8BD354B002B03D021003000FEF764FDAF
:105720002369002B43D0220002213000984701203A
:10573000EEE77F2B06D8A068002836D02A002B4938
:10574000FDF7F2FDA368E28959195219E38892B274
:10575000E281A160934214D03F2D12D9A589A81AE5
:10576000071C80B240282ED82378BFB27F2B2CD8BC
:105770000021AA4234D01D4A3B003000FFF706FF4B
:10578000C6E72369002B05D022000121300098478D
:1057900000280ED0002161560023C943C90F002202
:1057A0003000C901FFF7F2FEB2E70020B0E70120A8
:1057B000AEE700213000FEF70DFE30008021FEF73D
:1057C00009FE0120A4E74027CEE7AA4207D0074CF4
:1057D0003A002000FDF7A8FD80212200CCE78021BF
:1057E0000022C9E7D80B0020E9410010F40B00208B
:1057F00010B50400FFF70CF8002801D1002010BDFF
:10580000FFF70EF80028F9D1B62080004443034882
:105810000019037901201840F1E7C0460009002073
:10582000B6239B00584310B5024B1030C01800F04F
:1058300039FB10BD00090020F0B5B625AD00454389
:105840002C00C646174F1034E41900B5200092B260
:1058500000F09CFB0600200000F03CFB3F2803D832
:10586000300004BC9046F0BD7B190020D9789846E2
:10587000FFF734FE0028F3D0200000F02BFB3F2878
:105880000AD996239B00EA184346D219D9780020FA
:105890004023FFF77BFEE3E743460020D978FFF77C
:1058A0004FFEDDE700090020F8B50400FEF7B0FF69
:1058B000002801D10020F8BDFEF7B2FF0028F9D181
:1058C000B620800044432500144E2C35AD19280025
:1058D00000F0E8FA0028EDD037190020B978FFF77A
:1058E000FDFD0028E6D0A6239B009C466444A41935
:1058F00021002800402200F049FBB978051E08D09D
:10590000030022000020FFF741FE0028D2D028002B
:10591000D1E70020FFF714FECCE7C04600090020C5
:1059200070B5B624A4004443094B2C34E418050098
:1059300092B2200000F0E8FB0600200000F0B2FA6E
:105940003F2801D8300070BD2800FFF7ADFFF9E710
:1059500000090020B6239B00584310B5024B2C30A1
:10596000C01800F0B7FA10BD00090020B622F0B54B
:105970001B4C83B0002120009200FDF7CFFCFF23D9
:105980006371184B80260025E3800127082321003E
:10599000200076002373320027816581483100950D
:1059A000073B103000F042FA21002000493132005C
:1059B000FF31012300972C3000F038FA92239B002E
:1059C000E6183000FBF70CFF94239B00A662E61854
:1059D00030006562FBF704FF2664656403B0F0BD28
:1059E0000009002000C2FFFF10B5094C052200216C
:1059F0002000FDF793FC20002C34103000F000FC58
:105A0000200000F0FDFB0121200000F01FFC10BD74
:105A100000090020F0B54B79060083B0022B02D1BB
:105A20008B79022B03D00025280003B0F0BD2F4F47
:105A3000BB78002BF7D18B7809253B700C780C19BB
:105A40006378242B0BD1082A02D80FE0AA420DD389
:105A50002378E418ED186378ADB2242BF6D0052B2B
:105A600020D0042B02D163790A2B2ED0204C2000A9
:105A700000F030FA3F28D7D92600103E0020F178F8
:105A8000FFF72CFD0028CFD0200000F023FA3F289C
:105A900016D992239B00E218F17840230020FFF7EB
:105AA00075FDC1E721003000FFF700FD0028BAD0E6
:105AB000A3787B702378ED18E4186378ADB2D0E753
:105AC000F1780020FFF73CFDAEE70A4B2778019301
:105AD00001330093022202233000E119FFF7A6FCF4
